:0C0000001BC0FECFFDCFFCCF43C0FACFE9
:10000C00F9CFF8CF4DC0F6CFF5CFF4CFF3CFF2CF79
:10001C00F1CFF0CFEFCFEECFEDCF0000000000001E
:10002C00460000000A00040026000000F894EE27A9
:10003C00ECBBF1E0FBBFEBBFE5BF8DE0A2E0BB2763
:10004C00ED938A95E9F780E094E0A0E6ED930197B3
:10005C00E9F7E0E3F0E085919591009761F0A591C7
:10006C00B59105901590BF01F00105900D92019787
:10007C00E1F7FB01F0CFEFE5EDBFE4E0EEBFC0E64A
:10008C00D1E020C0EA93FA93EFB7EA93F3013196EB
:10009C003F01E3ECE4BDE991EFBFF991E9911895CB
:1000AC00AA93EA93EFB7EA93A0E0C299A1E0E1E04A
:1000BC00EA2711F4C29801C0C29AE991EFBFE99105
:1000CC00A99118950DD015D03CD052D005D078946C
:1000DC0076D03FD0FDCFFFCFE9B7E464E9BF0895F8
:1000EC00E7B3EF6FE7BBE1B3EF6FE1BBE0E0E4BB7D
:1000FC000895E0E2F3E060E070E0E0936001F093DB
:10010C0061016093620170936301F5017ED06627F3
:10011C007727C0D0DF01CB01E4E6F0E060E070E0CF
:10012C00ECD07CD0E0E8EFBDEFB5E260EFBDEEB512
:10013C00E861EEBDEEB5E160EEBD79D087D086D03A
:10014C000895E0E0E2BDE3BDE1E0E5BDE3ECE4BD34
:10015C0008956814790458F0A0E0C099A1E0E1E09A
:10016C00EA2711F4C09801C0C09A66247724089538
:10017C00E0E4E7B9E7E8E6B90895BA93AA93FAD0B0
:10018C00EA81FB81E770F070EA83FB83E7B1E87FDB
:10019C00AA81EA2BE7B9369A3699FECF04B111271A
:1001AC00E5B1FE2FE0E00E0F1F1F083EE3E01E0737
:1001BC0010F008EE13E0F801E0D024960895A0E0CA
:1001CC00B0E0DBDFF695E7952F01A1E0B0E0D5DFDD
:1001DC00DF01EAE0F0E07ED05F01F201EE0FFF1FDD
:1001EC0066277727A0EAB6E881E090E0ABD04F0114
:1001FC00F501A0E2B3E046D0DF01E4E6F0E06AD01E
:10020C00662777270BD013D00895A0916001B09189
:10021C00610180916201909163010895E093640102
:10022C00F093650160936601709367010895A09146
:10023C006401B09165018091660190916701E8E0DD
:10024C0015D0EBBDE0916401EABD0895DEDFE8E076
:10025C000DD0E7BDE0916001E6BD0895F095609585
:10026C007095E195FF4F6F4F7F4F0895EE230E2E43
:10027C00FD01BC0131F076956795F795E7950A94E9
:10028C00D1F70895FA9FF02DEB9FF00DEA9FE02D2A
:10029C00F10D08957A9F702D6B9F700DF89F700D66
:1002AC00E99F700D6A9F602D710DFB9F600D711D94
:1002BC00E89F600D711D8827FA9FF02D610D781F46
:1002CC00EB9FF00D611D781FEA9FE02DF10D681F6B
:1002DC00781F08950024112490E1AA0FBB1F001C65
:1002EC00111C0E1A1F0A18F40E0E1F1E01C0A1605D
:1002FC009A9599F7FD01D00108953F934F935F9321
:10030C00002411244427552730E2AA0FBB1F881F55
:10031C00991F001C111C441F551F0E1A1F0A460B57
:10032C00570B28F40E0E1F1E461F571F01C0A1604D
:10033C003A9559F7FD01BC01D001CA015F914F916B
:10034C003F91089504D0D9DF0EF488DF0895E89426
:10035C0077FF02C083DF689497FF0BC00024A09541
:10036C00B095809590951196801D901D00F8039482
:10037C0000FA08951A930A93089519810881089533
:00000001FF
